:020000040800F2
:1000000000000220B9020008BF020008C302000875
:1000100035030008390300088103000800000000D0
:10002000000000000000000000000000E11B0008CC
:10003000CD03000800000000811C0008E51C00083A
:10004000E5030008E5030008E5030008E5030008F0
:10005000E5030008E5030008E5030008E5030008E0
:10006000E5030008E5030008E5030008E5030008D0
:10007000E5030008E5030008E5030008E5030008C0
:10008000E5030008E5030008E5030008E5030008B0
:10009000E5030008E5030008E5030008E5030008A0
:1000A000E5030008E5030008E5030008E503000890
:1000B000E5030008E5030008E5030008E503000880
:1000C000E5030008E5030008E5030008E503000870
:1000D000E5030008E5030008E5030008E503000860
:1000E000E5030008E5030008E5030008E503000850
:1000F000E5030008E5030008E5030008E503000840
:10010000E5030008E5030008E5030008E50300082F
:10011000E5030008E5030008E5030008E50300081F
:10012000E5030008E5030008E5030008E50300080F
:10013000E5030008E5030008E5030008E5030008FF
:10014000E5030008E5030008E5030008E5030008EF
:10015000E5030008E5030008E5030008E5030008DF
:10016000E5030008E5030008E5030008E5030008CF
:10017000E5030008E5030008E503000800000000AF
:10018000E5030008E503000800B583B001F0CCF9F1
:10019000384B394A1360394A1360394906E052F83E
:1001A000041B43F8041B9842F9D86146354B994229
:1001B00005D20A684B6801F10C0C8868F3E72E4BF6
:1001C0001A68314B9A4200D0FEE72C4B1A682F4B2D
:1001D0009A42F9D1274B2E4A13602E4A13602E4AB9
:1001E00000E002462D4B9A4209D2104650F8083BD7
:1001F00051689942F5D9002243F8042BF9E7244BC2
:100200001B6813B9234B1B6803B1FEE701F040FAEA
:10021000694601A800F0CEFF214C224BE41AA4103D
:10022000002504E01F4B53F8253098470135AC42B8
:10023000F8DC1D4C1D4BE41AA410002504E01B4BF8
:1002400053F8253098470135AC42F8DC0099019805
:1002500001F0C6FA0546164C164BE41AA41004E049
:10026000013C144B53F824309847002CF8DC284606
:1002700000F03CFFBABADECA00000020780000207F
:10028000E8030008000400087856341232547698C7
:100290007C0000202C30012000040008100400081D
:1002A00010040008100400081004000810040008DE
:1002B000100400081004000808B5FFF765FF00BE31
:1002C000FEE71EF0040F0CBFEFF30880EFF3098088
:1002D0007146414A10472DE9F04182B004460D466F
:1002E000124B5F6BD3F838809E6A1B6B13F0020FC2
:1002F00003D00E4BDB6A002B0BDB0D4800F0F0FF48
:10030000009543463A463146204601F013F800BEB8
:10031000FEE74BF6AB6101F087F80028EDD0034B08
:100320004FF00042DA6202B0BDE8F08100ED00E07B
:100330001843000800BEFEE71EF0040F0CBFEFF3E9
:100340000880EFF309807146244A10472DE9F041F7
:1003500082B004460D46084B5F6BD3F838809E6A26
:10036000064800F0BDFF009543463A463146204618
:1003700000F0E0FF00BEFEE700ED00E028430008CB
:100380001EF0040F0CBFEFF30880EFF309807146F5
:10039000134A10472DE9F04182B004460D46084B40
:1003A0005F6BD3F838809E6A064800F099FF00958D
:1003B00043463A463146204600F0BCFF00BEFEE709
:1003C00000ED00E03443000800BEFEE700BEFEE79B
:1003D00000BEFEE770470000D70200084D0300088A
:0803E0009503000800BEFEE7D2
:1003E80098450008000000207C000020984500087F
:1003F80000000010000000107C00002030300120B8
:080408000000001000000010CC
:1004100010B504460E4B18784FF47A73B3FBF0F323
:100420000C4A1068B0FBF3F000F09CF868B90F2C90
:1004300001D901200AE0002221464FF0FF3000F0F0
:100440004BF8054B1C60002000E0012010BD00BFF0
:10045000040000200C0000200800002008B50B4B11
:100460001A6842F400721A601A6842F480621A60D4
:100470001A6842F480721A60032000F00FF80F200F
:10048000FFF7C6FF01F046FA002008BD003C02401D
:10049000014B1868704700BF8000002010B504466B
:1004A000C31E042B0FD80A4AD36823F4E0631B044D
:1004B0001B0C240204F4E064234343F0BF6343F4C1
:1004C0000033D36010BD9221024801F0E9F8EAE759
:1004D00000ED00E06441000870B505460C46164684
:1004E0000F2A25D80F2C28D81B4BDB68C3F3022317
:1004F000C3F10701042928BF04211A1D062A21D9A6
:10050000033B4FF0FF3202FA01F124EA01049C4060
:1005100002FA03F326EA03063443002D14DB240118
:10052000E4B205F1604505F5614585F8004370BD0D
:10053000AA210A4801F0B4F8D4E7AB21074801F03A
:10054000AFF8D1E70023DCE705F00F052401E4B2A2
:10055000034B5C55EBE700BF00ED00E06441000891
:1005600014ED00E00138B0F1807F0BD24FF0E023B2
:100570005861054AF02182F8231000209861072273
:100580001A6170470120704700ED00E010B5044685
:10059000042800D040B9042C0CD04FF0E02213699D
:1005A00023F00403136110BD40F2C911054801F0A6
:1005B00077F8F0E74FF0E022136943F0040313618A
:1005C000F1E700BF644100082DE9F04383B007461E
:1005D0000E46374B984223D003F5806398421FD0D4
:1005E00003F5806398421BD003F58063984217D0CF
:1005F00003F58063984213D003F5806398420FD0CF
:1006000003F5806398420BD003F58063984207D0CE
:1006100003F58063984203D0B321264801F040F8E7
:1006200033689AB212B11B0C1B041BB1B4212148D0
:1006300001F036F87368012B1ED9112B1CD0022B48
:100640001AD0122B18D01C4A934215D002F58012F2
:10065000934211D002F5801293420DD0A2F5F81208
:10066000934209D002F58012934205D002F5801220
:10067000934201D0032B04D1B368022B06D8002487
:1006800052E0B5210B4801F00BF8F5E7B621094817
:1006900001F006F8F3E7C821064801F001F859E037
:1006A000E021044800F0FCFF97E0072307E000BFCB
:1006B00000000240984100080000111000238B4008
:1006C00003430232794941F82230794B1A686FEAC4
:1006D000080322EA0801706810F4803F01D048EA5C
:1006E0000201734A1160526803EA0201706810F453
:1006F000003F01D048EA02016D4A5160926803EA66
:100700000201706810F4801F01D048EA0201684AB3
:100710009160D2681340716811F4001F01D048EA5B
:100720000203634AD36001340F2C00F2BB80012521
:10073000A540336803EA050835EA0303F3D173687B
:100740005A1E012A03D9112B01D0122B15D1F3689F
:10075000032BA0D8BA68610003238B4022EA03026E
:10076000F3688B401343BB607A6822EA0502736822
:10077000C3F30015A54015437D60FA6865000323A7
:10078000AB406FEA030922EA0302B368AB401343AC
:10079000FB607368022B01D0122B2ED13369E3B1B9
:1007A000092B1AD0012B18D0022B16D0032B14D0F2
:1007B000042B12D0052B10D0062B0ED0072B0CD0FB
:1007C000082B0AD00A2B08D00B2B06D00C2B04D0F8
:1007D0000D2B02D00F2B7FF463AFE208083257F8DD
:1007E000220004F0070399000F238B4020EA030046
:1007F00033698B40034347F822303B6809EA030919
:10080000736803F00303AB4043EA09033B6073687A
:1008100013F0805F87D000230193264B5A6C42F47B
:1008200080425A645B6C03F480430193019BA208ED
:10083000911C1E4B53F8210004F0030399000F2371
:100840008B4020EA03001C4B9F423FF437AF03F577
:1008500080639F421AD003F580639F4218D003F54E
:1008600080639F4216D003F580639F4214D003F546
:1008700080639F4212D003F580639F4210D003F53E
:1008800080639F423FF411AF082318E7012316E766
:10089000022314E7032312E7042310E705230EE7DE
:1008A00006230CE703B0BDE8F08300BF0038014029
:1008B000003C01400038024000000240002800F0E7
:1008C000588270B582B0044603680F2B39D823686C
:1008D00013F0010F4DD063682BB1B3F5803F02D008
:1008E000B3F5A02F32D1804B9B6803F00C03042B8F
:1008F00036D07D4B9B6803F00C03082B2BD063682C
:10090000B3F5803F5FD0B3F5A02F62D0764B1A6865
:1009100022F480321A601A6822F480221A60636816
:10092000002B60D0FFF7B4FD05466F4B1B6813F436
:10093000003F1ED1FFF7ACFD401B6428F5D9032012
:100940001EE2E821694800F0ABFEC0E7ED216748F0
:1009500000F0A6FEC7E7644B5B6813F4800FCED0AF
:10096000614B1B6813F4003F03D06368002B00F059
:100970000282236813F0020F66D0E368012B41D88E
:1009800023691F2B44D8584B9B6813F00C0F4AD097
:10099000554B9B6803F00C03082B3FD0E368002BFA
:1009A00077D0534B01221A60FFF772FD05464E4B7C
:1009B0001B6813F0020F63D1FFF76AFD401B02288A
:1009C000F5D90320DCE1484A136843F4803313600F
:1009D000A5E7454B1A6842F480221A601A6842F46F
:1009E00080321A609BE7FFF753FD05463E4B1B68BC
:1009F00013F4003FBDD0FFF74BFD401B6428F5D931
:100A00000320BDE140F21F11384800F049FEB7E76E
:100A10004FF49071354800F043FEB4E7324B5B6809
:100A200013F4800FBAD1304B1B6813F0020F03D0C0
:100A3000E368012B40F0A1812B4A136823F0F803EF
:100A4000216943EAC1031360236813F0080F51D0F2
:100A50006369012B2FD863699BB3254B0122C3F82F
:100A6000802EFFF715FD05461F4B5B6F13F0020F3D
:100A700040D1FFF70DFD401B0228F5D903207FE18F
:100A8000194A136823F0F803216943EAC10313608C
:100A9000DAE7174B00221A60FFF7FAFC0546124B03
:100AA0001B6813F0020FCFD0FFF7F2FC401B0228A7
:100AB000F5D9032064E14FF4B0710C4800F0F0FD6B
:100AC000C9E70B4B0022C3F8802EFFF7E1FC054677
:100AD000054B5B6F13F0020F0CD0FFF7D9FC401BE6
:100AE0000228F5D903204BE100380240C841000834
:100AF00000004742236813F0040F7CD0A368012B49
:100B000001D9052B38D1A34B1B6C13F0805F39D171
:100B1000002301939F4B1A6C42F080521A641B6CA5
:100B200003F080530193019B01259B4B1B6813F439
:100B3000807F29D0A368012B3AD0052B3ED0954B5E
:100B40001A6F22F001021A671A6F22F004021A6764
:100B5000A368002B3CD0FFF79BFC06468D4B1B6F18
:100B600013F0020F45D1FFF793FC801B41F288334D
:100B70009842F3D9032003E14FF4C671874800F08F
:100B80008FFDC0E70025D0E7834A136843F48073E4
:100B90001360FFF77DFC06467F4B1B6813F4807FD4
:100BA000C8D1FFF775FC801B0228F5D90320E7E0C8
:100BB000784A136F43F001031367C9E7754B1A6F47
:100BC00042F004021A671A6F42F001021A67BFE787
:100BD000FFF75EFC06466F4B1B6F13F0020F08D049
:100BE000FFF756FC801B41F288339842F3D903206B
:100BF000C6E0002D3BD1A369022B3ED8A369002B90
:100C000000F0BD80634A926802F00C02082A00F0EE
:100C10009080022B79D1E36913B1B3F5800F32D103
:100C2000236A3F2B35D8636A323BB3F5BF7F36D892
:100C3000A36A022B05D0042B03D0062B01D0082B6E
:100C400033D1E36A023B0D2B35D8554B00221A668F
:100C5000FFF71EFC05464F4B1B6813F0007F30D09A
:100C6000FFF716FC401B0228F5D9032088E0494A0B
:100C7000136C23F080531364BDE740F2CF11474853
:100C800000F00EFDBAE74FF4EC71444800F008FDA7
:100C9000C6E740F2D911414800F002FDC3E74FF426
:100CA000ED713E4800F0FCFCC2E740F2DB113B482E
:100CB00000F0F6FCC5E74FF4EE71384800F0F0FCA8
:100CC000C3E7E369226A1343626A43EA8213A26AB2
:100CD0005208013A43EA0243E26A43EA02632D4AB8
:100CE00053602F4B01221A66FFF7D2FB0446294BB3
:100CF0001B6813F0007F06D1FFF7CAFB001B022818
:100D0000F5D903203CE000203AE0254B00221A668A
:100D1000FFF7BEFB04461F4B1B6813F0007F06D095
:100D2000FFF7B6FB001B0228F5D9032028E00020BE
:100D300026E0012B26D0174B5B6803F48001E269A3
:100D4000914221D103F03F02216A8A421ED1616A99
:100D500047F6C0721A408A421AD103F44032A16A9F
:100D60008A421FD103F07063E26A93421CD10020D3
:100D700006E001207047012002E0012000E0002091
:100D800002B070BD0120FBE70120F9E70120F7E781
:100D90000120F5E70038024000700040C84100081B
:100DA000000047420120EBE70120E9E708B5314B9D
:100DB0009B6803F00C03042B57D0082B57D12D4B05
:100DC0005A6802F03F025B6813F4800F2AD0294B67
:100DD0005968C1F3881C4FEA4C11B1EB0C006EEB63
:100DE0000E0E4FEA8E1343EA90638101091A63EBFA
:100DF0000E03DB0043EA5173C90011EB0C0C43F105
:100E00000003590200234FEA4C2041EADC5102F072
:100E10002BFB184B5B68C3F3014301335B00B0FB52
:100E2000F3F025E0134B5968C1F3881C4FEA4C11CD
:100E3000B1EB0C006EEB0E0E4FEA8E1343EA90639B
:100E40008101091A63EB0E03DB0043EA5173C90009
:100E500011EB0C0C43F10003990200234FEA8C20A4
:100E600041EA9C5102F000FBD3E7034800E003484D
:100E700008BD00BF0038024000127A000024F400D0
:100E8000002800F0F78070B50D4604460368013B6A
:100E90000E2B6BD8072D6FD87A4B1B6803F00F030E
:100EA000AB4208D2EBB2774A1370136803F00F031A
:100EB000AB4240F0E180236813F0020F29D013F019
:100EC000040F04D0704A936843F4E053936023689E
:100ED00013F0080F04D06C4A936843F460439360A6
:100EE000A3687BB1802B0DD0902B0BD0A02B09D009
:100EF000B02B07D0C02B05D0D02B03D0E02B01D0D6
:100F0000F02B3FD1604A936823F0F003A1680B43B4
:100F10009360236813F0010F4ED06368032B37D81A
:100F20006368012B3AD09A1E012A3ED9564A1268AC
:100F300012F0020F00F0A28053498A6822F00302E7
:100F400013438B60FFF7A4FA06464F4B9B6803F0F0
:100F50000C036268B3EB820F2ED0FFF799FA801B67
:100F600041F288339842F0D9032076E040F25121D3
:100F7000464800F095FB8DE740F25221434800F0CF
:100F80008FFB89E740F27521404800F089FBB9E703
:100F90004FF41F713D4800F083FBC1E73A4A1268E5
:100FA00012F4003FC8D1012057E0374A126812F00E
:100FB000007FC1D1012050E0324B1B6803F00F03CA
:100FC000AB4207D9EAB22F4B1A701B6803F00F032C
:100FD000AB4255D1236813F0040F14D0E3685BB122
:100FE000B3F5805F08D0B3F5A05F05D0B3F5C05F5F
:100FF00002D0B3F5E05F31D1234A936823F4E05384
:10100000E1680B439360236813F0080F15D0236940
:101010005BB1B3F5805F08D0B3F5A05F05D0B3F541
:10102000C05F02D0B3F5E05F1ED1174A936823F486
:101030006043216943EAC1039360FFF7B7FE124B97
:101040009B68C3F30313124AD35CD840114B18605A
:10105000114B1868FFF7DCF9002070BD40F2BA218F
:101060000A4800F01DFBC7E740F2C121074800F025
:1010700017FBDAE7012070470120EEE70120ECE7DB
:101080000120EAE7003C024000380240C841000865
:10109000444300080C00002008000020014B1868A1
:1010A000704700BF0C00002008B503460C4A1268C8
:1010B0005AB10B4A1068033323F003030344094A6F
:1010C000934206D8064A136008BD054A06491160D6
:1010D000EFE702F04BFB0C2303604FF0FF30F3E728
:1010E0008400002000FC01203030012000B530B920
:1010F000044D182420462946ABBE0446FEE7024DA7
:10110000F7E700BF26000200230002002DE9F041AE
:1011100084B0234F019703260396002302930124F2
:1011200001AD20462946ABBE80461E4BC3F8008069
:10113000019703960423029320462946ABBE8046BE
:10114000194BC3F8008001970396082302932046A9
:101150002946ABBE0446154B1C60B4F1FF3F01D0DD
:1011600000230AE0104B1A68104B1A60F8E7104A87
:101170004FF0FF3142F833100133132BF7DD0C4BE6
:10118000084A12681A6000225A6007490968996083
:10119000DA600649096819615A6104B0BDE8F08156
:1011A000F8410008080100200C0100200401002083
:1011B000100100202DE9F04383B0814688462A4B78
:1011C00000934F23019315276C4638462146ABBE4A
:1011D0000746AFBB244B002283F84F20009A3E46BF
:1011E0003C463D4607E001321E46204B43F8252091
:1011F00001350124013292F90030FBB164B91C4978
:1012000059560029F6DB092BF4D0082D16DC222BC9
:10121000E9D0272BE9D1E6E736B19E42EAD1002397
:1012200013703E463C46E5E711495956002901DB5B
:10123000092BDFD1002313703446DBE73DB900E012
:101240000025094B00221A70084A13600135074B2C
:10125000002243F82520C9F80050C8F80030FFF7F5
:1012600055FF03B0BDE8F08388000020D8000020BF
:10127000F94300082DE9F04385B004460F46435674
:101280003BBB042528462146ABBE0446384605B084
:10129000BDE8F08314F901CB03F110026A4402F8AF
:1012A00010CC0133AB42F5D310336B44002203F86A
:1012B000102C4FF00408E94640464946ABBE804634
:1012C000761B002EE2D03546102E28BF10250023B5
:1012D000E8E70E46F5E708B5FFF7CCFF08BD0000CC
:1012E0000FB400B583B004AB53F8042B01938021F5
:1012F000074802F03BFB002804DC03B05DF804EB78
:1013000004B0704701460248FFF7E5FFF5E700BF6C
:10131000B001002010B5044602F0F4FA0146204660
:10132000FFF7D9FF01210248FFF7D5FF10BD00BF2D
:1013300094420008F8B504460D4617461E46274855
:10134000FFF7CEFF21682648FFF7CAFF61682548EE
:10135000FFF7C6FFA1682448FFF7C2FFE1682348F2
:10136000FFF7BEFF21692248FFF7BAFF61692148F4
:10137000FFF7B6FFA1692048FFF7B2FFE1691F48F8
:10138000FFF7AEFF1E48FFF7ABFF29461D48FFF7EA
:10139000A7FF1D4CE16A1D48FFF7A2FF216B1C4807
:1013A000FFF79EFFE16B1B48FFF79AFF15F0800FD8
:1013B0000AD115F4004F0CD11748FFF791FF069999
:1013C0001648FFF78DFFF8BD39461548FFF788FF2F
:1013D000EFE731461348FFF783FFEDE7FC410008D4
:1013E0000C4200081C4200082C4200083C42000845
:1013F0004C4200085C4200086C4200087C42000835
:101400008C4200089842000800ED00E0A842000865
:10141000B8420008C8420008F8420008004300082B
:10142000D8420008E842000838B583691B888B421F
:1014300001D0002038BD044603684568013B302BCD
:1014400069D8DFE803F046211C1C5E30332D1919E2
:10145000681919191919361924681927683968681B
:1014600068686868686868686868686868686868FC
:1014700068686868681919004FF0FF330360A36952
:101480000233A3610120D5E700230360F7E70023BF
:101490000360F4E700232B606B60AB60EB60EEE76A
:1014A00000230360EBE7AB680360E8E70023036019
:1014B000E5E700230360E2E7BFF34F8F1749CA68EF
:1014C00002F4E062164B1343CB60BFF34F8F00BFB3
:1014D000FDE71449286802F00BFA40B96B6813B9AC
:1014E00001232360CBE7042B05D0082B06D04FF057
:1014F000FF332360C3E702232360C0E70323236095
:10150000BDE72B68023B012B02D9AB680360B6E74D
:1015100000230360B3E700208CE700BF00ED00E08C
:101520000400FA05F841000808B500F009F8024A7D
:10153000024B9A6008BD00BF0000000800ED00E00B
:10154000024B4FF000629A60704700BF00ED00E070
:10155000224B9B6803F00C03042B14D0082B16D0ED
:101560001BB11F4B1F4A1A6002E01D4B1D4A1A6037
:101570001A4B9B68C3F303131B4AD15C184A1368C8
:10158000CB4013607047164B184A1A60F0E7134BB4
:1015900059685A6802F03F0211F4800F13D0134BC0
:1015A000B3FBF2F30D4A5268C2F3881202FB03F355
:1015B0000A4A5268C2F3014201325200B3FBF2F30D
:1015C000074A1360D4E7074BB3FBF2F3034A5268B0
:1015D000C2F3881202FB03F3EAE700BF00380240BF
:1015E0000C0000200024F4004443000800127A009C
:1015F00030B595B000240194224B1A6C42F0805211
:101600001A641B6C03F080530193019B02941E4BE0
:101610001A6842F480421A601B6803F48043029304
:10162000029B012308934FF4803309934FF4800306
:101630000F93082310934FF4A8731193022512956A
:10164000072313930E9508A8FFF738F90F23039388
:10165000049505944FF4A05306934FF480530793D9
:10166000052103A8FFF70CFCFFF718FD074BA3FBB0
:1016700000308009FEF776FF0420FEF787FF15B0E3
:1016800030BD00BF0038024000700040D34D6210F2
:1016900008B5FEF7E3FEFFF7ABFFFFF759FF08BD04
:1016A00008B50A4601460248FFF71AFEFEE700BFEA
:1016B0005443000801604260012101FA02F2826095
:1016C00003737047037B5BB1426802F1100103684A
:1016D00003F5801380339B0201228A409A61704790
:1016E000036803F5801380339B0282689A61704718
:1016F000037B3BB1036803F5801380339B02826850
:101700009A617047426802F11001036803F5801383
:1017100080339B0201228A409A61704710B586B0DF
:1017200004460D48026B2168012303FA01F10A43C4
:101730000263A2680192029302220492039320683A
:1017400000F58010803001A98002FEF73DFF2046A1
:10175000FFF7CEFF06B010BD0038024084B00DF197
:10176000100C0CE90F009DF80C305BB100F58013F4
:1017700080339B021A69029B1A420CBF0120002091
:1017800004B07047009B03F5801380339B021A69F5
:10179000029B1A4214BF01200020F1E708B5084857
:1017A000FFF7B8FD074B0FCBFFF7D8FF18B105487F
:1017B000FFF79EFF08BD0348FFF784FFFAE700BF6D
:1017C000844300083002002008B50348FFF7A2FD5B
:1017D0000248FFF777FF08BDAC4300084002002035
:1017E00030B587B03C4D02AC00230C2203212046CB
:1017F000FFF760FF94E80F0085E80F0000230D223B
:1018000003212046FFF756FF05F1100C94E80F0066
:101810008CE80F0000230E2203212046FFF74AFF29
:1018200005F1200C94E80F008CE80F0000230F2234
:1018300003212046FFF73EFF303594E80F0085E88E
:101840000F00002405E0244800EB0410FFF766FFBA
:101850000134032CF7DD214B009300231A464FF48B
:10186000FA611F4801F078FC1E4C20601E4B00936B
:1018700001231A464FF47A711C4801F06DFC1C4B91
:1018800018602468CCB1C0B101F05CF802460025B4
:1018900000952B460121204601F078FC154B18607D
:1018A000134B1C6801F04EF8024600952B460121AF
:1018B000204601F06BFC104B18600E4B1B68012B8F
:1018C00002D0002007B030BD0B4B1B68012BF8D1B4
:1018D00000F0EEFFF5E700BF30020020C917000856
:1018E000D0430008700200209D170008D84300086C
:1018F00078020020740200207C020020FEE7FEE750
:1019000000B583B000F026F90190019B03B05DF8AB
:1019100004FB704770470000124A12F0070F1ED0F8
:10192000D11D21F00701C1F5963313440A460E4834
:101930000260002141601344083B23F007030B4879
:10194000036059601960991A51601360084B19605F
:10195000084B1960084B4FF000421A6070474FF473
:101960009633E4E784020020902E012080020020BC
:101970008C2E0120882E0120842E0120164B1A4621
:101980001B688342FBD3516802EB010C844509D0EC
:10199000416800EB010C634509D00360904219D007
:1019A000106070474068014451601046F0E710B481
:1019B0000A4C2468A3420BD05B6819444160136849
:1019C0001B680360904200D010605DF8044B7047C4
:1019D0000460F7E7704700BF902E012080020020CE
:1019E00070B5054600F0A6FF394B1B689BB1394B1B
:1019F0001B681D4212D135B1083515F0070F02D012
:101A000025F007050835D5B1334B1B68AB421AD317
:101A1000324A14681DE0FFF77FFFE8E701F02CF879
:101A20000026FFF76BFF16F0070F4FD04FF0500363
:101A300083F31188BFF36F8FBFF34F8FFEE701F081
:101A40001BF80026EDE701F017F80026E9E722462B
:101A50001C466368AB4202D22368002BF7D11C4BB3
:101A60001B68A34214D016680836236813606368A5
:101A70005B1B102B14D9601910F0070F0CD04FF01E
:101A8000500383F31188BFF36F8FBFF34F8FFEE7CF
:101A900000F0F2FF0026C4E743606560FFF76EFFC9
:101AA00062680D490B689B1A0B600D4909688B42EF
:101AB00001D20B490B60074B1B6813436360002383
:101AC000236000F0D9FF002EADD1AAE7304670BDEB
:101AD00080020020842E0120882E0120902E0120DB
:101AE0008C2E012080B338B50446A0F1080550F8CB
:101AF000043C164A1268134208D14FF0500383F396
:101B00001188BFF36F8FBFF34F8FFEE750F8081CAB
:101B100041B14FF0500383F31188BFF36F8FBFF3D0
:101B20004F8FFEE723EA020340F8043C00F002FF77
:101B300054F8041C064A13680B4413602846FFF748
:101B40001DFF00F099FF38BD704700BF842E0120B3
:101B5000882E0120014B1868704700BF882E012095
:101B60000B4B1B68B3F1FF3F08D04FF0500383F3DA
:101B70001188BFF36F8FBFF34F8FFEE74FF0500315
:101B800083F31188BFF36F8FBFF34F8FFEE700BF62
:101B90001000002006480068006880F3088862B6DC
:101BA00061B6BFF34F8FBFF36F8F00DF00BF000040
:101BB00008ED00E04FF0807340F8043C21F0010193
:101BC00040F8081C054B40F80C3C40F8202C6FF006
:101BD000020340F8243C4438704700BF611B0008F2
:101BE000074B19680868B0E8F04F80F30988BFF325
:101BF0006F8F4FF0000080F311887047AFF30080C3
:101C0000E02E01204FF0500383F31188BFF36F8F54
:101C1000BFF34F8F0B4A136801331360012B00D0C1
:101C200070474FF0E023D3F8043D13F0FF0FF7D0D7
:101C30004FF0500383F31188BFF36F8FBFF34F8FC3
:101C4000FEE700BF10000020094B1B6843B94FF0AE
:101C5000500383F31188BFF36F8FBFF34F8FFEE7FD
:101C6000013B034A13600BB983F31188704700BF2F
:101C70001000002000000000000000000000000034
:101C8000EFF30980BFF36F8F154B1A681EF0100F2A
:101C900008BF20ED108A20E9F04F10604DF8043D98
:101CA0004FF0500080F31188BFF34F8FBFF36F8F59
:101CB00000F0A4FF4FF0000080F3118808BC196801
:101CC0000868B0E8F04F1EF0100F08BFB0EC108AA3
:101CD00080F30988BFF36F8F704700BFAFF30080B8
:101CE000E02E012008B54FF0500383F31188BFF3B5
:101CF0006F8FBFF34F8F00F02BFE28B14FF0E02322
:101D00004FF08052C3F8042D002383F3118808BDDF
:101D1000064B1B68064AA2FB03239B09013B4FF0BD
:101D2000E022536107231361704700BF0C000020BD
:101D3000D34D62104FF0E023D3F8002D344B9A427C
:101D40001CD04FF0E023D3F8002D324B9A421ED026
:101D500010B582B0304B1A78D2B20192FF221A70BD
:101D60001B78DBB28DF803309DF8033003F050038D
:101D70002A4A13702A4B07221A601BE04FF05003C7
:101D800083F31188BFF36F8FBFF34F8FFEE74FF0E0
:101D9000500383F31188BFF36F8FBFF34F8FFEE7BC
:101DA0001F4A1368013B13609DF803305B00DBB2F0
:101DB0008DF803309DF8033013F0800FF0D1184AEE
:101DC00013681B02136003F4E0631360019BDBB232
:101DD000114A13704FF0E024D4F8203D43F470030F
:101DE000C4F8203DD4F8203D43F07043C4F8203DB2
:101DF000FFF78EFF0B4B00221A60D4F8343F43F0FC
:101E00004043C4F8343FFFF7C5FEFFF7A9FE00BF0B
:101E100071C20F4170C20F4100E400E0982E012012
:101E20009C2E012010000020EFF305830F2B0FD90B
:101E3000114A9B5CDBB2114A12789A4208D94FF0E2
:101E4000500383F31188BFF36F8FBFF34F8FFEE70B
:101E50004FF0E023D3F80C3D03F4E063084A126826
:101E6000934208D94FF0500383F31188BFF36F8F6B
:101E7000BFF34F8FFEE77047F0E300E0982E01209C
:101E80009C2E012000F1080343604FF0FF32826076
:101E9000C360036100230360704700230361704740
:101EA00043684B609A688A60516099600861036872
:101EB00001330360704730B40D68B5F1FF3F11D0B6
:101EC00000F108031C465B681A68AA42FAD96368E5
:101ED0004B6099608C606160086103680133036046
:101EE00030BC70470469F2E70369416882688A6020
:101EF000416851605A68824205D000220261186828
:101F000001381860704782685A60F6E710B50446D9
:101F1000FFF778FEA26BE36B9A4204D00024FFF730
:101F200093FE204610BD0124F9E710B50446FFF7E3
:101F300069FEA36B23B90124FFF786FE204610BD7E
:101F40000024F9E770B504461546866B026C5AB951
:101F500003681BB100200136A66370BD406800F025
:101F6000E9FF00236360F6E76DB9806801F006FCC5
:101F7000226CA3681344A3606268934219D3236858
:101F8000A3602846E7E7C06801F0F8FB226C5142E5
:101F9000E3689B1AE3602268934202D263680B44B1
:101FA000E360022D01D00020D5E726B1013E0020DC
:101FB000D1E72846CFE70020CDE70346026C6AB19F
:101FC00010B50846D9681144D9605C68A14201D3B4
:101FD0001968D960D96801F0D1FB10BD704738B5D8
:101FE0000546FFF70FFE95F8454064B201E0013C5D
:101FF00064B2002C0ADD6B6A43B105F1240000F0E5
:1020000097FE0028F3D000F02FFFF0E7FF2385F8BC
:102010004530FFF719FEFFF7F5FD95F8444064B22F
:1020200001E0013C64B2002C0ADD2B6943B105F1EB
:10203000100000F07DFE0028F3D000F015FFF0E75F
:10204000FF2385F84430FFF7FFFD38BD38B5E0B118
:102050000D460446FFF7D6FD2368E26B216C01FBB9
:10206000023060600020A063A360013A02FB0133EC
:10207000E360FF2384F8443084F84530FDB92369D8
:1020800063B9FFF7E1FD012038BD4FF0500383F342
:102090001188BFF36F8FBFF34F8FFEE704F110007D
:1020A00000F046FE0028ECD04FF0E0234FF08052C5
:1020B000C3F8042DBFF34F8FBFF36F8FE1E704F137
:1020C0001000FFF7DFFE04F12400FFF7DBFED8E786
:1020D00038B51D46049C0B4649B92460E06323646F
:1020E00001212046FFF7B2FF84F84C5038BD226032
:1020F000F4E740B94FF0500383F31188BFF36F8FBB
:10210000BFF34F8FFEE7F0B583B00C461546064689
:1021100089B101FB00F05030FFF762FC074638B18F
:1021200000902B4600F1500221463046FFF7D0FFC9
:10213000384603B0F0BD0846EDE7F0B585B0019232
:1021400088B10F461D460446B1B1022D20D1E36B84
:10215000012B1DD04FF0500383F31188BFF36F8F15
:10216000BFF34F8FFEE74FF0500383F31188BFF3A7
:102170006F8FBFF34F8FFEE7036C002BE5D04FF05E
:10218000500383F31188BFF36F8FBFF34F8FFEE7C8
:1021900000F070FE064658B9019B002B48D04FF066
:1021A000500383F31188BFF36F8FBFF34F8FFEE7A8
:1021B00000263DE02A4639462046FFF7C3FE636A03
:1021C0007BB948B14FF0E0234FF08052C3F8042DA3
:1021D000BFF34F8FBFF36F8FFFF736FD012005B0C0
:1021E000F0BD04F1240000F0A3FD0028F4D04FF06E
:1021F000E0234FF08052C3F8042DBFF34F8FBFF39D
:102200006F8FE9E7FFF720FD0020E8E702A800F064
:10221000D5FD012619E0002384F8443021E0002395
:1022200084F8453023E02046FFF7D9FE00F024FC77
:10223000FFF7E8FCA26BE36B9A42BBD3022DB9D047
:10224000019B002BDED0002EE0D0FFF7FDFC00F05C
:1022500071FBFFF7D7FC94F8442052B2B2F1FF3F74
:10226000D9D094F8452052B2B2F1FF3FD7D0FFF752
:10227000EBFC01A902A800F0B7FDD8B92046FFF792
:1022800045FE0028CFD0019904F1100000F01CFD9C
:102290002046FFF7A4FE00F0EFFB0028C8D14FF066
:1022A000E0234FF08052C3F8042DBFF34F8FBFF3EC
:1022B0006F8FBDE72046FFF792FE00F0DDFB0020A8
:1022C0008DE72DE9F84390B10F4616461C460546AA
:1022D000B1B1022C20D1EB6B012B1DD04FF050037C
:1022E00083F31188BFF36F8FBFF34F8FFEE74FF07B
:1022F000500383F31188BFF36F8FBFF34F8FFEE757
:10230000036C002BE5D04FF0500383F31188BFF32B
:102310006F8FBFF34F8FFEE7FFF786FDEFF3118955
:102320004FF0500383F31188BFF36F8FBFF34F8FCC
:10233000AA6BEB6B9A4206D3022C04D0002089F3DF
:102340001188BDE8F88395F845804FFA88F8224651
:1023500039462846FFF7F6FDB8F1FF3F06D008F1F1
:1023600001035BB285F845300120E8E76B6A0BB9E1
:102370000120E4E705F1240000F0DAFC18B126B1F1
:1023800001203060DBE70120D9E70120D7E72DE904
:10239000F04184B00192A0B10E4698460446C9B1FE
:1023A00000F068FD054608BB019B002B00F087800C
:1023B0004FF0500383F31188BFF36F8FBFF34F8F3C
:1023C000FEE74FF0500383F31188BFF36F8FBFF325
:1023D0004F8FFEE7036C002BE2D04FF0500383F3E6
:1023E0001188BFF36F8FBFF34F8FFEE7002566E0C4
:1023F000E56831462046FFF7E0FDB8F1000F20D137
:102400007B1EA36323683BB123694BB9FFF71CFC18
:10241000012004B0BDE8F08100F0E6FD6060F3E764
:1024200004F1100000F084FC0028EFD04FF0E0230E
:102430004FF08052C3F8042DBFF34F8FBFF36F8F5F
:10244000E4E7E560636A002BE0D004F1240000F0CB
:102450006FFC0028DAD04FF0E0234FF08052C3F831
:10246000042DBFF34F8FBFF36F8FCFE7FFF7ECFB68
:102470000020CEE702A800F0A1FC012529E00023FE
:1024800084F8443031E0002384F8453033E0FFF72E
:10249000B9FB606800F0FEFCFFF7D6FB3BE020468E
:1024A000FFF79DFD00F0E8FA09E02046FFF797FDF1
:1024B00000F0E2FA2046FFF738FD002842D1FFF78E
:1024C000A1FBA76B002F93D1019B002BCED0002D39
:1024D000D0D0FFF7B9FB00F02DFAFFF793FB94F88B
:1024E000442052B2B2F1FF3FC9D094F8452052B215
:1024F000B2F1FF3FC7D0FFF7A7FB01A902A800F088
:1025000073FC0028D1D12046FFF70FFD0028C6D06C
:102510002368002BBBD0019904F1240000F0D4FB08
:102520002046FFF75CFD00F0A7FA0028C7D14FF066
:10253000E0234FF08052C3F8042DBFF34F8FBFF359
:102540006F8FBCE7002064E70023072B0CD8074AF5
:1025500052F833200AB10133F7E7044A42F8331046
:1025600002EBC30358607047704700BFA02E0120E4
:1025700070B504460D461646FFF744FB94F8443008
:102580005BB2B3F1FF3F0DD094F845305BB2B3F1CD
:10259000FF3F0BD0FFF758FBA36B5BB12046FFF763
:1025A0001EFD70BD002384F84430EDE7002384F85D
:1025B0004530EFE73246294604F1240000F09CFB49
:1025C000ECE70000084B1B681B6823B9074B4FF072
:1025D000FF321A607047044B1B68DB68DB685A687F
:1025E000024B1A60704700BFE42E0120942F012097
:1025F00010B50446006BFFF775FA2046FFF772FA34
:1026000010BD2DE9F04780460D4617469946089EB5
:10261000DDF824A00A9C9200A521206B01F0BCF8F3
:10262000236B07F18042013A03EB820727F007078B
:102630004FF0000CBCF1090F0BD815F90C2004EB7E
:102640000C0383F8342015F90C3013B10CF1010C94
:10265000F0E7002384F83D30042E00D90426E6621A
:10266000A6640025E564201DFFF717FC04F118009F
:10267000FFF713FC2461C6F10506A66164622565B7
:1026800084F854504A4641463846FFF793FA206092
:10269000BAF1000F01D0CAF80040BDE8F087000091
:1026A00038B5002407E004EB840293000E48184478
:1026B000FFF7E8FB0134042CF5D90C4D2846FFF751
:1026C000E1FB0B4C2046FFF7DDFB0A48FFF7DAFB86
:1026D0000948FFF7D7FB0948FFF7D4FB084B1D60FB
:1026E000084B1C6038BD00BFEC2E0120682F012074
:1026F0007C2F01209C2F0120C82F0120B42F012006
:10270000E42E0120E82E012010B50446FFF77AFAE6
:10271000224A136801331360214B1B685BB1214BC4
:102720001B686BB91E4B1B68DA6AE36A9A4207D8CA
:102730001B4B1C6004E01A4B1C601368012B29D052
:10274000194A1368013313602364E06A012383404C
:10275000164A11680B43136000EB8000211D144BD7
:1027600003EB8000FFF79CFBFFF76EFA0D4B1B6835
:102770007BB10B4B1B68DA6AE36A9A4209D24FF0CD
:10278000E0234FF08052C3F8042DBFF34F8FBFF307
:102790006F8F10BDFFF784FFD2E700BF502F0120DD
:1027A000E02E0120B02F0120602F0120642F012096
:1027B000EC2E012070B504460D461D4B1E681D4BC6
:1027C00018680430FFF790FB50B91A4B1B68DA6A9F
:1027D000012303FA02F218490B6823EA02030B6093
:1027E000B4F1FF3F0DD03444124B1B685C60A6422D
:1027F00010D9124B18680F4B19680431FFF75BFBB7
:1028000070BD002DEFD00B4B196804310C48FFF759
:1028100047FBF5E70B4B1868064B19680431FFF7C7
:102820004AFB094B1B68A342EAD9074B1C60E7E748
:10283000DC2F0120E02E0120642F0120E82E012052
:10284000B42F0120E42E0120942F01202DE9F04324
:1028500085B00746884614461E469000FFF7C0F82C
:10286000F0B181465820FFF7BBF80546A0B1C0F88B
:102870003090D5B10023039302950D9B01930C9BDF
:1028800000933346224641463846FFF7BAFE2846B3
:10289000FFF73AFF012005E04846FFF723F9E8E794
:1028A0004FF0FF3005B0BDE8F0834FF0FF30F9E79F
:1028B00000B583B0194B019300230093822218497D
:1028C0001848FFF7C3FF012807D0012808D0B0F14E
:1028D000FF3F1AD003B05DF804FB00F015FCF4E7ED
:1028E0004FF0500383F31188BFF36F8FBFF34F8F07
:1028F0000D4B4FF0FF321A600C4B01221A600C4B4B
:1029000000221A60FFF716FAE4E74FF0500383F352
:102910001188BFF36F8FBFF34F8FFEE7902F012019
:10292000E0430008CD2B0008942F0120B02F012098
:10293000DC2F0120024A136801331360704700BF87
:102940005C2F0120014B1868704700BFDC2F01206D
:10295000F8B53E4B1B68002B6AD13D4B1D68013515
:102960001D60C5B93B4B1B681B6843B14FF050035A
:1029700083F31188BFF36F8FBFF34F8FFEE7354AA4
:102980001168354B186810601960344A13680133B8
:102990001360FFF717FE324B1B68AB423ED900278E
:1029A000304B1B68DB6A03EB83039A002E4B9B586A
:1029B000012B00D901272D4B1B68002B3FD1FEF7BF
:1029C000A8FF3CE00127234B1B681B6843B3214B46
:1029D0001B68DB68DC6863689D4226D3261D304691
:1029E000FFF782FAA36A1BB104F11800FFF77CFA23
:1029F000E36A01229A401E49086802430A6003EB19
:102A000083039A00314618481044FFF749FAE26AF6
:102A1000144B1B68DB6A9A42D4D2D4E70027D2E772
:102A20000F4B4FF0FF321A60BAE70D4A1360B7E759
:102A30000E4A136801331360FEF76BFF00270D4B3E
:102A40001B6803B101273846F8BD00BF5C2F012089
:102A5000DC2F0120E42E0120E82E0120982F0120F8
:102A6000942F0120E02E0120EC2E0120582F012070
:102A7000642F0120E02F012038B5354B1B6843B986
:102A80004FF0500383F31188BFF36F8FBFF34F8F65
:102A9000FEE7FFF7B7F82E4B1A68013A1A601B6879
:102AA000002B4FD12B4B1B680BB900244BE00024AB
:102AB000294B1B681BB3284BDB68DC6804F118004A
:102AC000FFF712FA251D2846FFF70EFAE06A0123E8
:102AD0008340224A11680B43136000EB80002946B3
:102AE0001F4B03EB8000FFF7DBF9E26A1D4B1B680D
:102AF000DB6A9A42DCD31C4B01221A60D8E70CB186
:102B0000FFF760FD194B1C6884B9174B1C68D4B1E2
:102B10004FF0E0234FF08052C3F8042DBFF34F8FE6
:102B2000BFF36F8F01240EE0013C07D0FFF710FFC9
:102B30000028F9D00C4B01221A60F5E70B4B00225C
:102B40001A60E2E70024FFF77FF8204638BD00BF97
:102B50005C2F0120502F01209C2F0120642F012089
:102B6000EC2E0120E02E0120E02F0120582F012023
:102B7000134B1B6813B310B5FFF7DCFE114B1C6839
:102B8000FFF77AFF24B90E4B1B68002BF4D110BD60
:102B9000FFF738F80B4BDB68DC68201DFFF7A4F962
:102BA000094A1368013B1360054A1368013B13602F
:102BB000FFF74AF82046FFF71BFDE4E7704700BF28
:102BC000542F0120C82F0120502F012008B50BE001
:102BD0004FF0E0234FF08052C3F8042DBFF34F8F26
:102BE000BFF36F8FFEF78CFEFFF7C2FF024B1B682F
:102BF000012BEDD8F6E700BFEC2E012008B52D4BD8
:102C00001B681BB12C4B01221A6008BD2A4B002205
:102C10001A602A4B1B681B6B1A68B2F1A53F03D1DF
:102C20005A68B2F1A53F1BD0244B1868196834319B
:102C3000FEF765FE224B1B68B3FA83F3DBB2C3F1E8
:102C40001F0303EB83018A001E498A588AB94FF09B
:102C5000500383F31188BFF36F8FBFF34F8FFEE7ED
:102C60009A68B2F1A53FDFD1DB68B3F1A53FDBD1B4
:102C7000E0E7144903EB830082000A44506840688F
:102C8000506003EB830C4FEA8C02083211448842F7
:102C900009D003EB83039A000A4B13445B68DA689C
:102CA000064B1A60B1E7406862469100054A0A4443
:102CB0005060EEE75C2F0120E02F0120E02E012084
:102CC000642F0120EC2E012058B110B50C46094AA2
:102CD00011681831FFF7EFF801212046FFF76AFD70
:102CE00010BD4FF0500383F31188BFF36F8FBFF314
:102CF0004F8FFEE7E02E012038B570B10D46144627
:102D00000A4A11681831FFF7CBF80CB14FF0FF35C4
:102D100021462846FFF74EFD38BD4FF0500383F3A0
:102D20001188BFF36F8FBFF34F8FFEE7E02E0120B6
:102D300038B5C368DC6824B304F118052846FFF7EA
:102D4000D3F8184B1B682BBB251D2846FFF7CCF882
:102D5000E06A01238340144A11680B43136000EBBF
:102D600080002946114B03EB8000FFF799F8E26AD7
:102D70000F4B1B68DB6A9A4211D901200D4B18607A
:102D800038BD4FF0500383F31188BFF36F8FBFF34B
:102D90004F8FFEE729460848FFF782F8E7E7002053
:102DA000EEE700BF5C2F0120642F0120EC2E0120F4
:102DB000E02E0120E02F01209C2F012030B1084A95
:102DC00012680260074A1268426070474FF0500371
:102DD00083F31188BFF36F8FBFF34F8FFEE700BF00
:102DE000982F0120DC2F012038B5C0B10C460546D4
:102DF000F1B1FEF707FF1A4B1A682368B3F1FF3FE2
:102E000027D0286817490968884202D0696891422A
:102E100024D96968501A834213D801241AE04FF06C
:102E2000500383F31188BFF36F8FBFF34F8FFEE71B
:102E30004FF0500383F31188BFF36F8FBFF34F8FB1
:102E4000FEE78A1A134423602846FFF7B7FF0024E1
:102E500000E00024FEF7F8FE204638BD0124F9E723
:102E6000DC2F0120982F0120014B01221A607047AE
:102E7000E02F0120054B1B6833B1054B1B680BB1DC
:102E8000002070470220704701207047B02F0120BA
:102E90005C2F0120002845D038B50446C36A224A79
:102EA0001268D26A934214D28269002A05DB1E4A54
:102EB0001268D26AC2F105028261616903EB830381
:102EC0001A4A02EB8303994204D0174B1B68DB6A52
:102ED000E36238BD251D2846FFF706F890B1124B76
:102EE0001B68D86AE06201238340114A11680B43D2
:102EF000136000EB800029460C4B03EB8000FEF7CB
:102F0000CFFFE6E7E36A03EB8301084A52F821208A
:102F1000002AE4D101229A4005490B6823EA020302
:102F20000B60DCE7704700BFE02E0120EC2E012093
:102F3000642F012000284CD038B50446274B1B686D
:102F4000834208D04FF0500383F31188BFF36F8F93
:102F5000BFF34F8FFEE7C36C43B94FF0500383F3C9
:102F60001188BFF36F8FBFF34F8FFEE7013BC36440
:102F7000C16A826C91422ED00BB1002038BD051D74
:102F80002846FEF7B1FF70B9E26A02EB8201144BEA
:102F900053F821303BB9012303FA02F211490B68BF
:102FA00023EA02030B60A06CE062C0F10503A36199
:102FB000012404FA00F30B4A11680B43136000EB81
:102FC00080002946064B03EB8000FEF769FF204690
:102FD000D4E7002070470020D0E700BFE02E01209A
:102FE000EC2E0120642F0120054B1B6823B1044BFC
:102FF0001A68D36C0133D364014B1868704700BF63
:10300000E02E0120064B1A681368B3FA83F35B09BC
:10301000036013B9D368186870470020704700BF79
:10302000E42F012008B54160006191420CD8D21A0A
:1030300083699A4201D3012008BD011D094B18681C
:10304000FEF739FF0020F7E79A4201D2994206D2F3
:10305000011D054B1868FEF72EFF0020ECE701204C
:10306000EAE700BFE82F0120E42F012038B5FEF782
:10307000C9FD0F4B1B6813B1FEF7E6FD38BD0D4DC2
:103080002846FEF7FFFE0C4C2046FEF7FBFE0B4BDE
:103090001D600B4B1C6000220C210A20FFF729F851
:1030A000034B18600028E7D00649FFF74DFAE3E725
:1030B00018300120EC2F012000300120E42F0120E6
:1030C000E82F0120E84300082DE9F041079F41B9AE
:1030D0004FF0500383F31188BFF36F8FBFF34F8F0F
:1030E000FEE7064615461C4688465FB1FFF7BEFF61
:1030F0003E60C7F81880FD613C62069B7B62381D0C
:10310000FEF7CBFEBDE8F08100B583B0FFF7AEFF60
:103110000D4B1B685BB10D4B019302230093002301
:103120004FF482720A490B48FFF790FB40B94FF009
:10313000500383F31188BFF36F8FBFF34F8FFEE708
:1031400003B05DF804FB00BF183001201C300120E3
:10315000F0430008513400082DE9F04182B00446E4
:10316000884615461E462C20FEF73AFC074640B11D
:103170000190089B009333462A4641462046FFF7BC
:10318000A3FF384602B0BDE8F0810000B8B19C460C
:1031900003461848006858B300B585B00191029203
:1031A000039305291CDCFFF765FE022810D00023DD
:1031B0001A4601A90F480068FEF7BFFF15E04FF05F
:1031C000500383F31188BFF36F8FBFF34F8FFEE778
:1031D0000023069A01A907480068FEF7AEFF04E045
:1031E0000023624601A9FFF76CF805B05DF804FB07
:1031F000002070471830012070B582B01A4B1B6850
:103200001A6852B3DB681E68DC68251D2846FEF785
:103210006BFE636A20469847E369012BEED1A369F0
:1032200033449E4207D26360246129460E4B1868DE
:10323000FEF741FEE2E7002100910B4632462046B0
:10324000FFF7A4FF0028D9D14FF0500383F3118872
:10325000BFF36F8FBFF34F8FFEE7044A1068024938
:103260000860136002B070BDE42F0120E82F012038
:1032700038B50546FFF766FB0446074B1B688342DB
:1032800005D800232B60044B1C60204638BDFFF797
:10329000B3FF01232B60F6E71430012070B582B034
:1032A00006460D4614490968C968CC68201DFEF71A
:1032B0001BFEE169012904D0636A2046984702B0E9
:1032C00070BDA16933462A4631442046FFF7AAFE65
:1032D0000028F1D0002100910B4632462046FFF72E
:1032E00055FF0028E8D14FF0500383F31188BFF356
:1032F0006F8FBFF34F8FFEE7E42F012070B582B0D0
:1033000006460C46FFF716FB01A8FFF7B1FF019B2D
:103310002BBB05460CB9B0421AD22CB1124B1B681C
:103320001C68B4FA84F464092246711B0F4B1868B8
:10333000FFF71EF9FFF7A0FB98B94FF0E0234FF01D
:103340008052C3F8042DBFF34F8FBFF36F8F08E097
:10335000FFF792FB29463046FFF7A0FF01E0FFF799
:103360008BFB02B070BD00BFE82F01201830012098
:1033700010B586B000231A4603A934480068FFF749
:1033800006F8002860D0039B002BF3DB059C6369E3
:1033900013B1201DFEF7A8FD02A8FFF769FF039BEC
:1033A000092BE7D801A252F823F000BFD53300085B
:1033B000D5330008D5330008753300081B340008E6
:1033C00041340008D5330008D533000875330008B0
:1033D0001B340008049BA169024619442046FFF7EC
:1033E00021FE0028C6D0636A20469847E369012B76
:1033F000C0D1A269002100910B46049802442046E6
:10340000FFF7C4FE0028B5D14FF0500383F31188B5
:10341000BFF36F8FBFF34F8FFEE70499A16131B106
:103420000346024601442046FFF7FCFDA2E74FF0A9
:10343000500383F31188BFF36F8FBFF34F8FFEE705
:103440002046FEF74FFB95E706B010BD183001206F
:1034500000B583B001A8FFF7D5FD0199FFF74EFF36
:10346000FFF786FFF6E7000053B94AB9002908BF05
:1034700000281CBF4FF0FF314FF0FF3000F074B94F
:10348000ADF1080C6DE904CE00F006F8DDF804E0BB
:10349000DDE9022304B070472DE9F047089D04469A
:1034A0008E46002B4DD18A42944669D9B2FA82F2F7
:1034B00052B101FA02F3C2F1200120FA01F10CFA33
:1034C00002FC41EA030E94404FEA1C48210CBEFB6B
:1034D000F8F61FFA8CF708FB16E341EA034306FBF4
:1034E00007F199420AD91CEB030306F1FF3080F083
:1034F0001F81994240F21C81023E63445B1AA4B2D0
:10350000B3FBF8F008FB103344EA034400FB07F771
:10351000A7420AD91CEB040400F1FF3380F00A81B2
:10352000A74240F207816444023840EA0640E41BA7
:1035300000261DB1D4400023C5E900433146BDE853
:10354000F0878B4209D9002D00F0EF800026C5E9F5
:10355000000130463146BDE8F087B3FA83F6002E0D
:103560004AD18B4202D3824200F2F980841A61EB85
:10357000030301209E46002DE0D0C5E9004EDDE7A3
:1035800002B9FFDEB2FA82F2002A40F09280A1EB8B
:103590000C014FEA1C471FFA8CFE0126200CB1FBE0
:1035A000F7F307FB131140EA01410EFB03F08842D9
:1035B00008D91CEB010103F1FF3802D2884200F266
:1035C000CB804346091AA4B2B1FBF7F007FB1011F8
:1035D00044EA01440EFB00FEA64508D91CEB040496
:1035E00000F1FF3102D2A64500F2BB800846A4EBF1
:1035F0000E0440EA03409CE7C6F12007B34022FADC
:1036000007FC4CEA030C20FA07F401FA06F31C430A
:10361000F9404FEA1C4900FA06F3B1FBF9F8200C17
:103620001FFA8CFE09FB181140EA014108FB0EF05D
:10363000884202FA06F20BD91CEB010108F1FF3AAD
:1036400080F08880884240F28580A8F102086144B9
:10365000091AA4B2B1FBF9F009FB101144EA0141C7
:1036600000FB0EFE8E4508D91CEB010100F1FF3472
:103670006CD28E456AD90238614440EA0840A0FB0A
:103680000294A1EB0E01A142C846A64656D353D0E0
:103690005DB1B3EB080261EB0E0101FA07F722FA04
:1036A00006F3F1401F43C5E9007100263146BDE82D
:1036B000F087C2F12003D8400CFA02FC21FA03F390
:1036C000914001434FEA1C471FFA8CFEB3FBF7F011
:1036D00007FB10360B0C43EA064300FB0EF69E4236
:1036E00004FA02F408D91CEB030300F1FF382FD2CF
:1036F0009E422DD9023863449B1B89B2B3FBF7F677
:1037000007FB163341EA034106FB0EF38B4208D94F
:103710001CEB010106F1FF3816D28B4214D9023E90
:103720006144C91A46EA004638E72E46284605E7AE
:103730000646E3E61846F8E64B45A9D2B9EB02087F
:1037400064EB0C0E0138A3E74646EAE7204694E70F
:103750004046D1E7D0467BE7023B614432E7304642
:1037600009E76444023842E7704700BF014B18681C
:10377000704700BF14000020704770470A44914210
:1037800000F1FF3300D1704710B511F8014B03F879
:10379000014F9142F9D110BD02440346934200D13A
:1037A000704703F8011BF9E770B50E4E0C463168FF
:1037B000054611B900F08CF830602146284600F02B
:1037C00087F8431C0AD0C41C24F00304A04207D08D
:1037D000211A284600F07CF8013001D14FF0FF3467
:1037E000204670BD283001202DE9F041CD1C25F088
:1037F000030508350C2D38BF0C25002D074601DBCD
:10380000A94205D90C233B6000263046BDE8F08173
:103810002E4E00F0B9F833681C4634BB29463846B2
:10382000FFF7C2FF431C04464DD134682646002EE4
:1038300040D123683146384604EB030800F048F8CD
:1038400080453AD1216803356D1A25F00305083506
:103850000C2D38BF0C2529463846FFF7A5FF01304F
:103860002BD023682B4423600EE02268521B1ED409
:103870000B2A16D96119A342256018BF59606368E5
:1038800008BF316062514B60384604F10B0600F00E
:1038900081F826F00706231DF21AB6D09B1BA35011
:1038A000B3E76268A3420CBF32605A60ECE723467C
:1038B0006468B2E734467668B9E70C233B60384663
:1038C00000F068F8A1E72560DEE700BF24300120A2
:1038D00038B5064D0023044608462B60FDF7E4FB8F
:1038E000431C02D12B6803B1236038BD00010020C6
:1038F00010F8012B11F8013B012A28BF9A42F7D09A
:10390000D01A7047034613F8012B002AFBD1181A6E
:103910000138704730B51446002C9BB005461A4656
:1039200005DA8B2303604FF0FF301BB030BD4FF43E
:103930000273ADF80C3014BF04F1FF332346029339
:1039400005934FF6FF7300910491ADF80E30694670
:103950001E9B00F0CDF8431CBCBF8B232B60002CBA
:10396000E3D0009B00221A70DFE7000007B5009348
:1039700013460A46014603480068FFF7CBFF03B031
:103980005DF804FB140000200148FFF7F5BE00BFFE
:10399000203001200148FFF7F0BE00BF2030012099
:1039A00037B5002944D051F8043C0190002BA1F117
:1039B0000404B8BFE418FFF7E7FF1E4A0198136834
:1039C00033B96360146003B0BDE83040FFF7E2BF75
:1039D000A34208D9256861198B4201BF19685B6849
:1039E00049192160EDE71A465B680BB1A342FAD989
:1039F00011685518A5420BD1246821445418A342DC
:103A00001160E0D11C685B68536021441160DAE703
:103A100002D90C230360D6E7256861198B4204BFE5
:103A200019685B68636004BF491921605460CAE784
:103A300003B030BD243001202DE9F0478E689E424E
:103A400082460C4690461F4638D88A8912F4906FF9
:103A500032D025680969A5EB0109656905EB4505C3
:103A600005EBD57501334B446D109D4238BF1D46A3
:103A7000530531D52946FFF7B7FE064650B90C234A
:103A8000CAF80030A38943F04003A3814FF0FF3010
:103A9000BDE8F08721694A46FFF770FEA38923F449
:103AA000906343F08003A381266165614E44A5EBDA
:103AB00009052660A5603E46BE4200D93E46206804
:103AC0003246414600F0FCFAA3689B1BA3602368C2
:103AD000334423600020DBE72A4600F00BFB064658
:103AE0000028E1D121695046FFF75AFFC7E70000DF
:103AF0002DE9F04F98468B891B069DB007460D4671
:103B000014460ED50B6963B94021FFF76DFE28609E
:103B1000286120B90C233B604FF0FF30D1E04023F7
:103B20006B610023099320238DF82930CDF80C8098
:103B30003023DFF8A8818DF82A304FF001092346A1
:103B40009A4613F8012B0AB1252AF9D1BAEB040BD6
:103B50000BD05B46224629463846FFF76DFF013001
:103B600000F0AA80099A5A4409929AF80030002B72
:103B700000F0A28000234FF0FF32CDE905230AF1C7
:103B8000010A049307938DF853301A935446052283
:103B900014F8011B514800F043FA049AD8B9D00632
:103BA00044BF20238DF85330110744BF2B238DF8D9
:103BB00053309AF800302A2B15D0079A544600202B
:103BC0004FF00A0C214611F8013B303B092B4ED92E
:103BD000B0B1079214E0A0EB080309FA03F3134312
:103BE0000493A246D2E7039B191D1B680391002B87
:103BF000BBBF5B4242F0020207930793B8BF049237
:103C000023782E2B0CD163782A2B35D1039B1A1DD8
:103C10001B680392002BB8BF4FF0FF3302340593AB
:103C2000DFF8C8A021780322504600F0F9F940B12E
:103C30004023A0EB0A0003FA00F0049B0343013485
:103C4000049314F8011B26488DF82810062200F072
:103C5000E7F9002838D0234B1BBB039B073323F025
:103C6000070308330393099B3344099367E70CFB6D
:103C700002320C460120A5E70023013405931946C2
:103C80004FF00A0C204610F8012B303A092A03D9CC
:103C9000002BC5D00591C3E70CFB0121044601238D
:103CA000F0E703AB00932A460F4B04A93846AFF365
:103CB0000080421C0646D6D1AB895B063FF52CAF8F
:103CC00009981DB0BDE8F08F03AB00932A46064B60
:103CD00004A9384600F07AF8EBE700BF5C4500081D
:103CE0006645000800000000393A000862450008F7
:103CF0002DE9F047164699468A680B69DDF8208061
:103D00009342B8BF1346336091F8432007460C46F0
:103D10000AB1013333602368990642BF3368023326
:103D20003360256815F0060506D104F1190AE36829
:103D300032689B1AAB4226DC94F84320131E22689B
:103D400018BF012392062BD404F14302494638469A
:103D5000C04701301ED02368E568326803F00603CF
:103D6000042B08BFAD1AA36822690CBF25EAE575CC
:103D700000259342C4BF9B1AED1800261A34B542A1
:103D80001AD1002008E00123524649463846C04770
:103D9000013003D14FF0FF30BDE8F0870135C6E7B1
:103DA000E1185A1C302081F84300224494F8451051
:103DB00082F843100233C7E70123224649463846BA
:103DC000C0470130E6D00136D9E700002DE9FF47B2
:103DD0000F7E0C9D782F914680460C469A4601F145
:103DE000430207D8622F0AD8002F00F0D880582F3E
:103DF00000F0A38004F1420584F842703AE0A7F194
:103E00006303152BF6D801A151F823F0653E000895
:103E1000793E0008F53D0008F53D0008F53D000835
:103E2000F53D0008793E0008F53D0008F53D000825
:103E3000F53D0008F53D0008853F0008A93E000853
:103E4000673F0008F53D0008F53D0008A73F000862
:103E5000F53D0008A93E0008F53D0008F53D0008C5
:103E60006F3F00082B681A1D1B682A6004F1420589
:103E700084F842300123A3E020682968060601F196
:103E800004030AD50E682B60002E03DA2D23764238
:103E900084F843305E480A2319E00E682B6010F066
:103EA000400F18BF36B2EFE72B682068191D296054
:103EB000010601D51E6802E04606FBD51E8854485F
:103EC0006F2F0CBF08230A23002184F84310656874
:103ED000A560002DA2BF216821F0040121600EB968
:103EE000002D4DD01546B6FBF3F103FB1167C75DFE
:103EF00005F8017D3746BB420E46F4D9082B0BD19D
:103F00002368DE0708D5236961689942DEBF302344
:103F100005F8013C05F1FF35521B2261CDF800A0E8
:103F20004B4603AA21464046FFF7E2FE01304CD142
:103F30004FF0FF3004B0BDE8F087354881F8457098
:103F40002968236851F8046B29601D0614D5DF0722
:103F500044BF43F0200323601EB9236823F02003ED
:103F600023601023B0E7236843F020032360782305
:103F7000284884F84530E3E7590648BFB6B2E6E77B
:103F80001546BBE72B6826686169181D2860350651
:103F90001B6801D5196002E07006FBD5198000236B
:103FA00023611546BAE72B681A1D2A601D686268EE
:103FB0000021284600F034F808B1401B60606368B7
:103FC0002361002384F84330A8E723692A46494641
:103FD0004046D0470130ABD023689B0713D4E0683C
:103FE000039B9842B8BF1846A4E7012332464946CE
:103FF0004046D04701309BD00135E36803995B1AF6
:10400000AB42F2DCEBE7002504F11906F5E700BF4F
:104010006D4500087E45000800000000000000001B
:1040200001F0FF01102A2BDB10F0070F08D010F869
:10403000013B013A8B422DD010F0070F42B3F6D16D
:10404000F0B441EA012141EA014122F007047FF086
:1040500000070023F0E80256083C85EA010586EADD
:10406000010685FA47F5A3FA87F586FA47F6A5FA19
:1040700087F68EB9EED1F0BC01F0FF0102F0070225
:1040800032B110F8013B013A83EA010313B1F8D1D0
:104090000020704701387047002D06BF35460338B1
:1040A000073815F0010F07D1013015F4807F02BFEA
:1040B000013015F4C03F0130F0BC0138704700BF3B
:1040C000884210B501EB020402D98442234607D886
:1040D000431EA14208D011F8012B03F8012FF8E785
:1040E000024401468A4200D110BD13F8014D02F886
:1040F000014DF7E72DE9F041804614460E4621B9FF
:10410000BDE8F0411146FFF76FBB2AB9FFF748FC45
:1041100025462846BDE8F08100F01BF8844207469A
:1041200002D8B4EB500F12D821464046FFF75CFB93
:1041300005460028EDD0BC422246314628BF3A460B
:10414000FFF71CFB31464046FFF72AFCE1E7354606
:10415000DFE751F8043C181F002BBCBF0B58C018F8
:10416000704700002E2E2F73797374656D2F737254
:10417000632F73746D333266342D68616C2F7374E2
:104180006D3332663478785F68616C5F636F727428
:1041900065782E63000000002E2E2F7379737465EE
:1041A0006D2F7372632F73746D333266342D6861B3
:1041B0006C2F73746D3332663478785F68616C5F2E
:1041C0006770696F2E6300002E2E2F7379737465EC
:1041D0006D2F7372632F73746D333266342D686183
:1041E0006C2F73746D3332663478785F68616C5FFE
:1041F0007263632E630000003A7474005374616349
:104200006B206672616D653A0A0000002052302012
:104210003D2020253038580A00000000205231206F
:104220003D2020253038580A00000000205232205E
:104230003D2020253038580A00000000205233204D
:104240003D2020253038580A00000000205231322D
:10425000203D20253038580A00000000204C522014
:104260003D2020253038580A00000000205043200F
:104270003D2020253038580A0000000020505352BD
:10428000203D20253038580A000000004653522FA8
:104290004641523A0A0000002043465352203D2036
:1042A00020253038580A00002048465352203D202F
:1042B00020253038580A00002044465352203D2023
:1042C00020253038580A00002041465352203D2016
:1042D00020253038580A0000204D4D464152203DDF
:1042E00020253038580A00002042464152203D2007
:1042F00020253038580A00004D6973630A00000019
:10430000204C522F4558435F52455455524E3D2044
:10431000253038580A0000005B48617264466175B8
:104320006C745D0A000000005B4275734661756C39
:10433000745D0A005B55736167654661756C745DF9
:104340000A00000000000000000000000102030459
:104350000607080957726F6E6720706172616D659C
:10436000746572732076616C75653A2066696C6558
:10437000202573206F6E206C696E652025640D0A00
:10438000000000004175746F2D52656C6F616420F0
:1043900074696D65722063616C6C6261636B20652A
:1043A0007865637574696E67000000004F6E652D57
:1043B00073686F742074696D65722063616C6C62E0
:1043C00061636B20657865637574696E67000000D2
:1043D00054696D657231000054696D657232000078
:1043E00049444C4500000000546D7251000000002B
:1043F000546D72205376630000202020202020205E
:104400002020282828282820202020202020202084
:104410002020202020202020208810101010101094
:1044200010101010101010101004040404040404E0
:10443000040404101010101010104141414141417A
:10444000010101010101010101010101010101015C
:10445000010101011010101010104242424242426C
:10446000020202020202020202020202020202022C
:1044700002020202101010102000000000000000D4
:10448000000000000000000000000000000000002C
:10449000000000000000000000000000000000001C
:1044A000000000000000000000000000000000000C
:1044B00000000000000000000000000000000000FC
:1044C00000000000000000000000000000000000EC
:1044D00000000000000000000000000000000000DC
:1044E00000000000000000000000000000000000CC
:1044F00000000000000000000000000000000000BC
:1045000000000000000000000000000000000000AB
:10451000000000000000000000000000000000009B
:10452000000000000000000000000000000000008B
:10453000000000000000000000000000000000007B
:10454000000000000000000000000000000000006B
:10455000000000000000000000000000232D302BB0
:104560002000686C4C006566674546470030313274
:1045700033343536373839414243444546003031CB
:0F4580003233343536373839616263646566002B
:0845900008EFFF7F01000000AD
:104598007856341201FFFFFF100000000024F400D9
:1045A800AAAAAAAA18000020000000001C450008BA
:1045B8003C450008FC440008000000000000000022
:1045C80000000000000000000000000000000000E3
:1045D80000000000000000000000000000000000D3
:1045E80000000000000000000000000000000000C3
:1045F80000000000000000000000000000000000B3
:0C46080000000000000000003254769812
:040000050800018965
:00000001FF
